:100000000C942A000C943C000C943C000C943C0092
:100010000C943C000C943C000C943C000C943C0070
:100020000C943C000C943C000C943C000C943D045B
:100030000C943C000C943C000C943C000C943C0050
:100040000C943C000C943C000C943C000C943C0040
:100050000C943C0011241FBECFE5D8E0DEBFCDBF1D
:1000600010E0A0E6B0E001C01D92AA36B107E1F7AA
:100070000E946A040C94E6040C940000DF93CF9372
:1000800000D0CDB7DEB789836A8389816A8141E078
:100090000E9481000F900F90CF91DF910895DF9320
:1000A000CF9300D0CDB7DEB789836A8389816A8117
:1000B00041E00E943C010F900F90CF91DF91089595
:1000C000DF93CF9300D0CDB7DEB789836A83898170
:1000D0006A8140E00E943C010F900F90CF91DF9128
:1000E0000895DF93CF9300D0CDB7DEB789836A83BD
:1000F00089816A810E94F7010F900F90CF91DF9163
:100100000895DF93CF9300D000D00F92CDB7DEB724
:1001100089836A834B838981282F30E03D832C8338
:100120006C817D8161307105D1F18C819D8182303E
:10013000910534F42C813D812115310571F094C075
:100140006C817D816230710509F44BC08C819D8189
:100150008330910509F467C087C0AAE3B0E0EAE301
:10016000F0E08081482F8A81282F30E081E090E004
:1001700002C0880F991F2A95E2F7809548238B814A
:10018000282F30E08A81882F90E0B90102C0660FE5
:10019000771F8A95E2F7CB01842B8C9365C0A7E388
:1001A000B0E0E7E3F0E08081482F8A81282F30E03B
:1001B00081E090E002C0880F991F2A95E2F78095B0
:1001C00048238B81282F30E08A81882F90E0B90165
:1001D00002C0660F771F8A95E2F7CB01842B8C93C0
:1001E00043C0A4E3B0E0E4E3F0E08081482F8A81DB
:1001F000282F30E081E090E002C0880F991F2A95F7
:10020000E2F7809548238B81282F30E08A81882F60
:1002100090E0B90102C0660F771F8A95E2F7CB0123
:10022000842B8C9321C0A1E3B0E0E1E3F0E0808176
:10023000482F8A81282F30E081E090E002C0880FAB
:10024000991F2A95E2F7809548238B81282F30E06B
:100250008A81882F90E0B90102C0660F771F8A95C6
:10026000E2F7CB01842B8C930F900F900F900F909F
:100270000F90CF91DF910895DF93CF9300D000D0FE
:100280000F92CDB7DEB789836A834B838981282F8C
:1002900030E03D832C836C817D8161307105D1F12B
:1002A0008C819D818230910534F42C813D81211512
:1002B000310571F094C06C817D816230710509F463
:1002C0004BC08C819D818330910509F467C087C044
:1002D000ABE3B0E0EBE3F0E08081482F8A81282F88
:1002E00030E081E090E002C0880F991F2A95E2F784
:1002F000809548238B81282F30E08A81882F90E0D9
:10030000B90102C0660F771F8A95E2F7CB01842BF3
:100310008C9365C0A8E3B0E0E8E3F0E08081482F6B
:100320008A81282F30E081E090E002C0880F991F79
:100330002A95E2F7809548238B81282F30E08A8127
:10034000882F90E0B90102C0660F771F8A95E2F707
:10035000CB01842B8C9343C0A5E3B0E0E5E3F0E050
:100360008081482F8A81282F30E081E090E002C010
:10037000880F991F2A95E2F7809548238B81282FB3
:1003800030E08A81882F90E0B90102C0660F771FA4
:100390008A95E2F7CB01842B8C9321C0A2E3B0E0D5
:1003A000E2E3F0E08081482F8A81282F30E081E06D
:1003B00090E002C0880F991F2A95E2F780954823A4
:1003C0008B81282F30E08A81882F90E0B90102C00C
:1003D000660F771F8A95E2F7CB01842B8C930F90E1
:1003E0000F900F900F900F90CF91DF910895DF93B2
:1003F000CF9300D000D0CDB7DEB789836A838981DF
:10040000282F30E03C832B838B819C8181309105A8
:1004100049F12B813C81223031052CF48B819C8168
:10042000009761F05AC02B813C812230310571F177
:100430008B819C8183309105E9F14FC0ABE3B0E043
:10044000EBE3F0E08081482F8A81282F30E081E0C3
:1004500090E0022E02C0880F991F0A94E2F78427C9
:100460008C933BC0A8E3B0E0E8E3F0E08081482F44
:100470008A81282F30E081E090E0022E02C0880FB0
:10048000991F0A94E2F784278C9327C0A5E3B0E074
:10049000E5E3F0E08081482F8A81282F30E081E079
:1004A00090E0022E02C0880F991F0A94E2F7842779
:1004B0008C9313C0A2E3B0E0E2E3F0E08081482F28
:1004C0008A81282F30E081E090E0022E02C0880F60
:1004D000991F0A94E2F784278C930F900F900F9046
:1004E0000F90CF91DF910895DF93CF9300D000D08C
:1004F0000F92CDB7DEB78A836B8319828A81282F4A
:1005000030E03D832C834C815D814130510541F1C8
:100510008C819D818230910534F42C813D8121159F
:10052000310561F052C04C815D814230510551F17D
:100530008C819D8183309105B9F147C0E9E3F0E0FA
:100540008081282F30E08B81882F90E0A90102C0A4
:10055000559547958A95E2F7CA018170898335C020
:10056000E6E3F0E08081282F30E08B81882F90E057
:10057000A90102C0559547958A95E2F7CA01817095
:10058000898323C0E3E3F0E08081282F30E08B8172
:10059000882F90E0A90102C0559547958A95E2F70A
:1005A000CA018170898311C0E0E3F0E08081282FC7
:1005B00030E08B81882F90E0A90102C055954795C6
:1005C0008A95E2F7CA018170898389810F900F9023
:1005D0000F900F900F90CF91DF910895DF93CF93FD
:1005E00000D000D000D0CDB7DEB789836A838A817E
:1005F000813099F58981282F30E03E832D838D81CC
:100600009E8181309105D1F02D813E8122303105CE
:100610002CF48D819E81009761F04DC02D813E812B
:100620002230310581F08D819E818330910581F0EA
:1006300042C0EAE3F0E08FEF80833DC0E7E3F0E003
:100640008FEF808338C0E4E3F0E08FEF808333C026
:10065000E1E3F0E08FEF80832EC08981282F30E026
:100660003C832B838B819C8181309105C9F02B8148
:100670003C81223031052CF48B819C81009761F004
:100680001AC02B813C812230310571F08B819C8115
:100690008330910569F00FC0EAE3F0E010820BC0EF
:1006A000E7E3F0E0108207C0E4E3F0E0108203C06B
:1006B000E1E3F0E0108226960FB6F894DEBF0FBE9D
:1006C000CDBFCF91DF910895DF93CF9300D000D0BD
:1006D000CDB7DEB789836A838981282F30E03C83D8
:1006E0002B838B819C8181309105D1F02B813C81C2
:1006F000223031052CF48B819C81009761F01EC063
:100700002B813C812230310581F08B819C818330AB
:10071000910581F013C0EBE3F0E08A8180830EC085
:10072000E8E3F0E08A81808309C0E5E3F0E08A81B4
:10073000808304C0E2E3F0E08A8180830F900F9011
:100740000F900F90CF91DF910895DF93CF93CDB7A6
:10075000DEB7AFE5B0E0EFE5F0E0808180688C9334
:10076000CF91DF910895DF93CF93CDB7DEB7AFE59B
:10077000B0E0EFE5F0E080818F778C93CF91DF914F
:100780000895DF93CF9300D0CDB7DEB789836A8316
:1007900089816A8141E00E9481000F900F90CF9182
:1007A000DF910895DF93CF9300D0CDB7DEB7898373
:1007B0006A8389816A8141E00E943C010F900F9019
:1007C000CF91DF910895DF93CF9300D0CDB7DEB7FF
:1007D00089836A8389816A8140E00E943C010F908D
:1007E0000F90CF91DF910895DF93CF9300D0CDB7D5
:1007F000DEB789836A8389816A810E94F7010F903D
:100800000F90CF91DF910895DF93CF93CDB7DEB7EF
:10081000A3E5B0E0E3E5F0E080818F7B8C93A3E576
:10082000B0E0E3E5F0E08081877F8C93E2E5F0E0E3
:100830008DEC8083A3E5B0E0E3E5F0E080818460A7
:100840008C93A9E5B0E0E9E5F0E0808181608C93CC
:10085000CF91DF910895DF93CF9300D0CDB7DEB76E
:100860009A83898389819A81909361008093600043
:100870000F900F90CF91DF9108951F920F920FB6B6
:100880000F9211242F933F934F935F936F937F9316
:100890008F939F93AF93BF93EF93FF93DF93CF9388
:1008A000CDB7DEB7E0916000F09161000995CF917E
:1008B000DF91FF91EF91BF91AF919F918F917F91C8
:1008C0006F915F914F913F912F910F900FBE0F90BD
:1008D0001F901895DF93CF93CDB7DEB70E94A50385
:1008E0000E94040487E794E00E942B04FFCFDF936B
:1008F000CF93CDB7DEB78091660090916700A0914D
:100900006800B09169008A379105A105B105A1F48D
:10091000E2E5F0E08DEC80831092660010926700B3
:10092000109268001092690082E060E00E94C103AA
:1009300082E060E00E94F403809162009091630085
:10094000A0916400B0916500843F9105A105B105B7
:10095000A1F4E2E5F0E08DEC808310926200109249
:100960006300109264001092650082E061E00E94D2
:100970003E0082E061E00E947100809166009091EB
:100980006700A0916800B09169000196A11DB11D9A
:100990008093660090936700A0936800B09369000D
:1009A0008091620090916300A0916400B091650015
:1009B0000196A11DB11D8093620090936300A093E6
:1009C0006400B0936500CF91DF910895F894FFCF54
:00000001FF
